{
  "contractName": "MappingTest",
  "abi": [
    {
      "inputs": [
        {
          "internalType": "address",
          "name": "_FucksToken",
          "type": "address"
        }
      ],
      "stateMutability": "nonpayable",
      "type": "constructor"
    },
    {
      "anonymous": false,
      "inputs": [
        {
          "indexed": false,
          "internalType": "address",
          "name": "client",
          "type": "address"
        },
        {
          "indexed": false,
          "internalType": "string",
          "name": "item",
          "type": "string"
        }
      ],
      "name": "Added",
      "type": "event"
    },
    {
      "stateMutability": "payable",
      "type": "fallback",
      "payable": true
    },
    {
      "inputs": [],
      "name": "FucksToken",
      "outputs": [
        {
          "internalType": "contract FUCKSToken",
          "name": "",
          "type": "address"
        }
      ],
      "stateMutability": "view",
      "type": "function",
      "constant": true
    },
    {
      "inputs": [],
      "name": "gas",
      "outputs": [
        {
          "internalType": "uint256",
          "name": "",
          "type": "uint256"
        }
      ],
      "stateMutability": "view",
      "type": "function",
      "constant": true
    },
    {
      "inputs": [],
      "name": "gasprice",
      "outputs": [
        {
          "internalType": "uint256",
          "name": "",
          "type": "uint256"
        }
      ],
      "stateMutability": "view",
      "type": "function",
      "constant": true
    },
    {
      "inputs": [
        {
          "internalType": "uint256",
          "name": "",
          "type": "uint256"
        }
      ],
      "name": "items",
      "outputs": [
        {
          "internalType": "string",
          "name": "",
          "type": "string"
        }
      ],
      "stateMutability": "view",
      "type": "function",
      "constant": true
    },
    {
      "inputs": [
        {
          "internalType": "string",
          "name": "",
          "type": "string"
        }
      ],
      "name": "proposals",
      "outputs": [
        {
          "internalType": "string",
          "name": "topic",
          "type": "string"
        },
        {
          "internalType": "string",
          "name": "description",
          "type": "string"
        },
        {
          "internalType": "address",
          "name": "targetContract",
          "type": "address"
        },
        {
          "internalType": "uint256",
          "name": "count",
          "type": "uint256"
        }
      ],
      "stateMutability": "view",
      "type": "function",
      "constant": true
    },
    {
      "stateMutability": "payable",
      "type": "receive",
      "payable": true
    },
    {
      "inputs": [],
      "name": "itemsSizePrivileged",
      "outputs": [
        {
          "internalType": "uint256",
          "name": "",
          "type": "uint256"
        }
      ],
      "stateMutability": "view",
      "type": "function",
      "constant": true
    },
    {
      "inputs": [
        {
          "internalType": "string",
          "name": "item",
          "type": "string"
        }
      ],
      "name": "addItemPrivileged",
      "outputs": [],
      "stateMutability": "nonpayable",
      "type": "function"
    },
    {
      "inputs": [
        {
          "internalType": "string",
          "name": "item",
          "type": "string"
        }
      ],
      "name": "addItem",
      "outputs": [],
      "stateMutability": "nonpayable",
      "type": "function"
    },
    {
      "inputs": [],
      "name": "itemsSize",
      "outputs": [
        {
          "internalType": "uint256",
          "name": "",
          "type": "uint256"
        }
      ],
      "stateMutability": "view",
      "type": "function",
      "constant": true
    },
    {
      "inputs": [
        {
          "internalType": "string",
          "name": "topic",
          "type": "string"
        },
        {
          "internalType": "string",
          "name": "description",
          "type": "string"
        },
        {
          "internalType": "address",
          "name": "targetContract",
          "type": "address"
        }
      ],
      "name": "setProposal",
      "outputs": [],
      "stateMutability": "nonpayable",
      "type": "function"
    },
    {
      "inputs": [
        {
          "internalType": "string",
          "name": "topic",
          "type": "string"
        }
      ],
      "name": "getProposal",
      "outputs": [
        {
          "components": [
            {
              "internalType": "string",
              "name": "topic",
              "type": "string"
            },
            {
              "internalType": "string",
              "name": "description",
              "type": "string"
            },
            {
              "internalType": "address",
              "name": "targetContract",
              "type": "address"
            },
            {
              "internalType": "uint256",
              "name": "count",
              "type": "uint256"
            }
          ],
          "internalType": "struct MappingTest.Proposal",
          "name": "",
          "type": "tuple"
        }
      ],
      "stateMutability": "view",
      "type": "function",
      "constant": true
    },
    {
      "inputs": [
        {
          "internalType": "string",
          "name": "s1",
          "type": "string"
        },
        {
          "internalType": "string",
          "name": "s2",
          "type": "string"
        }
      ],
      "name": "compareString",
      "outputs": [
        {
          "internalType": "bool",
          "name": "",
          "type": "bool"
        }
      ],
      "stateMutability": "pure",
      "type": "function",
      "constant": true
    }
  ],
  "bytecode": "0x60806040523480156200001157600080fd5b50604051620018fe380380620018fe8339818101604052810190620000379190620000e9565b80600460006101000a81548173ffffffffffffffffffffffffffffffffffffffff021916908373ffffffffffffffffffffffffffffffffffffffff160217905550506200011b565b600080fd5b600073ffffffffffffffffffffffffffffffffffffffff82169050919050565b6000620000b18262000084565b9050919050565b620000c381620000a4565b8114620000cf57600080fd5b50565b600081519050620000e381620000b8565b92915050565b6000602082840312156200010257620001016200007f565b5b60006200011284828501620000d2565b91505092915050565b6117d3806200012b6000396000f3fe6080604052600436106100ab5760003560e01c8063823f51eb11610064578063823f51eb146101de5780639566862914610207578063977f121314610232578063bfb231d21461025d578063d90fd2451461029a578063ffa0d2a4146102c3576100b5565b806325d3a09d146100ba57806327e9f294146100f75780633d3198ba146101205780636ca7c2161461014b5780636ec232d31461017657806375b83187146101a1576100b5565b366100b557600080fd5b600080fd5b3480156100c657600080fd5b506100e160048036038101906100dc9190610fc5565b610303565b6040516100ee919061115a565b60405180910390f35b34801561010357600080fd5b5061011e60048036038101906101199190610fc5565b610517565b005b34801561012c57600080fd5b506101356105ef565b604051610142919061118b565b60405180910390f35b34801561015757600080fd5b506101606106dd565b60405161016d919061118b565b60405180910390f35b34801561018257600080fd5b5061018b6106e3565b604051610198919061118b565b60405180910390f35b3480156101ad57600080fd5b506101c860048036038101906101c391906111a6565b6106e9565b6040516101d59190611239565b60405180910390f35b3480156101ea57600080fd5b5061020560048036038101906102009190611280565b61071c565b005b34801561021357600080fd5b5061021c6109b5565b604051610229919061118b565b60405180910390f35b34801561023e57600080fd5b506102476109c2565b604051610254919061136a565b60405180910390f35b34801561026957600080fd5b50610284600480360381019061027f91906113b1565b6109e8565b6040516102919190611428565b60405180910390f35b3480156102a657600080fd5b506102c160048036038101906102bc9190610fc5565b610a94565b005b3480156102cf57600080fd5b506102ea60048036038101906102e59190610fc5565b610c14565b6040516102fa9493929190611459565b60405180910390f35b61030b610d8a565b61032482604051806020016040528060008152506106e9565b610363576040517f08c379a000000000000000000000000000000000000000000000000000000000815260040161035a906114f8565b60405180910390fd5b6000826040516103739190611554565b908152602001604051809103902060405180608001604052908160008201805461039c9061159a565b80601f01602080910402602001604051908101604052809291908181526020018280546103c89061159a565b80156104155780601f106103ea57610100808354040283529160200191610415565b820191906000526020600020905b8154815290600101906020018083116103f857829003601f168201915b5050505050815260200160018201805461042e9061159a565b80601f016020809104026020016040519081016040528092919081815260200182805461045a9061159a565b80156104a75780601f1061047c576101008083540402835291602001916104a7565b820191906000526020600020905b81548152906001019060200180831161048a57829003601f168201915b505050505081526020016002820160009054906101000a900473ffffffffffffffffffffffffffffffffffffffff1673ffffffffffffffffffffffffffffffffffffffff1673ffffffffffffffffffffffffffffffffffffffff1681526020016003820154815250509050919050565b61053081604051806020016040528060008152506106e9565b15610570576040517f08c379a000000000000000000000000000000000000000000000000000000000815260040161056790611618565b60405180910390fd5b6001819080600181540180825580915050600190039060005260206000200160009091909190915090805190602001906105ab929190610dc8565b503a6003819055507f94e7f6ffd305b4b7857eae6832212b9ca332124af404f48c61e7640d26b2ecc733826040516105e4929190611638565b60405180910390a150565b600062030d40600460009054906101000a900473ffffffffffffffffffffffffffffffffffffffff1673ffffffffffffffffffffffffffffffffffffffff166370a08231336040518263ffffffff1660e01b81526004016106509190611668565b602060405180830381865afa15801561066d573d6000803e3d6000fd5b505050506040513d601f19601f820116820180604052508101906106919190611698565b10156106d2576040517f08c379a00000000000000000000000000000000000000000000000000000000081526004016106c990611711565b60405180910390fd5b600180549050905090565b60025481565b60035481565b600080839050600083905080518251148015610712575080805190602001208280519060200120145b9250505092915050565b6000808460405161072d9190611554565b908152602001604051809103902090506107e281600001805461074f9061159a565b80601f016020809104026020016040519081016040528092919081815260200182805461077b9061159a565b80156107c85780601f1061079d576101008083540402835291602001916107c8565b820191906000526020600020905b8154815290600101906020018083116107ab57829003601f168201915b5050505050604051806020016040528060008152506106e9565b801561088f575061088e8160010180546107fb9061159a565b80601f01602080910402602001604051908101604052809291908181526020018280546108279061159a565b80156108745780601f1061084957610100808354040283529160200191610874565b820191906000526020600020905b81548152906001019060200180831161085757829003601f168201915b5050505050604051806020016040528060008152506106e9565b5b80156108eb5750600073ffffffffffffffffffffffffffffffffffffffff168160020160009054906101000a900473ffffffffffffffffffffffffffffffffffffffff1673ffffffffffffffffffffffffffffffffffffffff16145b80156108fb575060008160030154145b61093a576040517f08c379a00000000000000000000000000000000000000000000000000000000081526004016109319061177d565b60405180910390fd5b83816000019080519060200190610952929190610dc8565b508281600101908051906020019061096b929190610dc8565b50818160020160006101000a81548173ffffffffffffffffffffffffffffffffffffffff021916908373ffffffffffffffffffffffffffffffffffffffff16021790555050505050565b6000600180549050905090565b600460009054906101000a900473ffffffffffffffffffffffffffffffffffffffff1681565b600181815481106109f857600080fd5b906000526020600020016000915090508054610a139061159a565b80601f0160208091040260200160405190810160405280929190818152602001828054610a3f9061159a565b8015610a8c5780601f10610a6157610100808354040283529160200191610a8c565b820191906000526020600020905b815481529060010190602001808311610a6f57829003601f168201915b505050505081565b610aad81604051806020016040528060008152506106e9565b15610aed576040517f08c379a0000000000000000000000000000000000000000000000000000000008152600401610ae490611618565b60405180910390fd5b62030d40600460009054906101000a900473ffffffffffffffffffffffffffffffffffffffff1673ffffffffffffffffffffffffffffffffffffffff166370a08231336040518263ffffffff1660e01b8152600401610b4c9190611668565b602060405180830381865afa158015610b69573d6000803e3d6000fd5b505050506040513d601f19601f82011682018060405250810190610b8d9190611698565b1015610bce576040517f08c379a0000000000000000000000000000000000000000000000000000000008152600401610bc590611711565b60405180910390fd5b600181908060018154018082558091505060019003906000526020600020016000909190919091509080519060200190610c09929190610dc8565b503a60038190555050565b600081805160208101820180518482526020830160208501208183528095505050505050600091509050806000018054610c4d9061159a565b80601f0160208091040260200160405190810160405280929190818152602001828054610c799061159a565b8015610cc65780601f10610c9b57610100808354040283529160200191610cc6565b820191906000526020600020905b815481529060010190602001808311610ca957829003601f168201915b505050505090806001018054610cdb9061159a565b80601f0160208091040260200160405190810160405280929190818152602001828054610d079061159a565b8015610d545780601f10610d2957610100808354040283529160200191610d54565b820191906000526020600020905b815481529060010190602001808311610d3757829003601f168201915b5050505050908060020160009054906101000a900473ffffffffffffffffffffffffffffffffffffffff16908060030154905084565b60405180608001604052806060815260200160608152602001600073ffffffffffffffffffffffffffffffffffffffff168152602001600081525090565b828054610dd49061159a565b90600052602060002090601f016020900481019282610df65760008555610e3d565b82601f10610e0f57805160ff1916838001178555610e3d565b82800160010185558215610e3d579182015b82811115610e3c578251825591602001919060010190610e21565b5b509050610e4a9190610e4e565b5090565b5b80821115610e67576000816000905550600101610e4f565b5090565b6000604051905090565b600080fd5b600080fd5b600080fd5b600080fd5b6000601f19601f8301169050919050565b7f4e487b7100000000000000000000000000000000000000000000000000000000600052604160045260246000fd5b610ed282610e89565b810181811067ffffffffffffffff82111715610ef157610ef0610e9a565b5b80604052505050565b6000610f04610e6b565b9050610f108282610ec9565b919050565b600067ffffffffffffffff821115610f3057610f2f610e9a565b5b610f3982610e89565b9050602081019050919050565b82818337600083830152505050565b6000610f68610f6384610f15565b610efa565b905082815260208101848484011115610f8457610f83610e84565b5b610f8f848285610f46565b509392505050565b600082601f830112610fac57610fab610e7f565b5b8135610fbc848260208601610f55565b91505092915050565b600060208284031215610fdb57610fda610e75565b5b600082013567ffffffffffffffff811115610ff957610ff8610e7a565b5b61100584828501610f97565b91505092915050565b600081519050919050565b600082825260208201905092915050565b60005b8381101561104857808201518184015260208101905061102d565b83811115611057576000848401525b50505050565b60006110688261100e565b6110728185611019565b935061108281856020860161102a565b61108b81610e89565b840191505092915050565b600073ffffffffffffffffffffffffffffffffffffffff82169050919050565b60006110c182611096565b9050919050565b6110d1816110b6565b82525050565b6000819050919050565b6110ea816110d7565b82525050565b6000608083016000830151848203600086015261110d828261105d565b91505060208301518482036020860152611127828261105d565b915050604083015161113c60408601826110c8565b50606083015161114f60608601826110e1565b508091505092915050565b6000602082019050818103600083015261117481846110f0565b905092915050565b611185816110d7565b82525050565b60006020820190506111a0600083018461117c565b92915050565b600080604083850312156111bd576111bc610e75565b5b600083013567ffffffffffffffff8111156111db576111da610e7a565b5b6111e785828601610f97565b925050602083013567ffffffffffffffff81111561120857611207610e7a565b5b61121485828601610f97565b9150509250929050565b60008115159050919050565b6112338161121e565b82525050565b600060208201905061124e600083018461122a565b92915050565b61125d816110b6565b811461126857600080fd5b50565b60008135905061127a81611254565b92915050565b60008060006060848603121561129957611298610e75565b5b600084013567ffffffffffffffff8111156112b7576112b6610e7a565b5b6112c386828701610f97565b935050602084013567ffffffffffffffff8111156112e4576112e3610e7a565b5b6112f086828701610f97565b92505060406113018682870161126b565b9150509250925092565b6000819050919050565b600061133061132b61132684611096565b61130b565b611096565b9050919050565b600061134282611315565b9050919050565b600061135482611337565b9050919050565b61136481611349565b82525050565b600060208201905061137f600083018461135b565b92915050565b61138e816110d7565b811461139957600080fd5b50565b6000813590506113ab81611385565b92915050565b6000602082840312156113c7576113c6610e75565b5b60006113d58482850161139c565b91505092915050565b600082825260208201905092915050565b60006113fa8261100e565b61140481856113de565b935061141481856020860161102a565b61141d81610e89565b840191505092915050565b6000602082019050818103600083015261144281846113ef565b905092915050565b611453816110b6565b82525050565b6000608082019050818103600083015261147381876113ef565b9050818103602083015261148781866113ef565b9050611496604083018561144a565b6114a3606083018461117c565b95945050505050565b7f746f70696320697320656d707479000000000000000000000000000000000000600082015250565b60006114e2600e836113de565b91506114ed826114ac565b602082019050919050565b60006020820190508181036000830152611511816114d5565b9050919050565b600081905092915050565b600061152e8261100e565b6115388185611518565b935061154881856020860161102a565b80840191505092915050565b60006115608284611523565b915081905092915050565b7f4e487b7100000000000000000000000000000000000000000000000000000000600052602260045260246000fd5b600060028204905060018216806115b257607f821691505b602082108114156115c6576115c561156b565b5b50919050565b7f6974656d2063616e6e6f7420626520656d707479000000000000000000000000600082015250565b60006116026014836113de565b915061160d826115cc565b602082019050919050565b60006020820190508181036000830152611631816115f5565b9050919050565b600060408201905061164d600083018561144a565b818103602083015261165f81846113ef565b90509392505050565b600060208201905061167d600083018461144a565b92915050565b60008151905061169281611385565b92915050565b6000602082840312156116ae576116ad610e75565b5b60006116bc84828501611683565b91505092915050565b7f557365722073686f756c6420626520746f6b656e20686f6c6465720000000000600082015250565b60006116fb601b836113de565b9150611706826116c5565b602082019050919050565b6000602082019050818103600083015261172a816116ee565b9050919050565b7f50726f706f73616c20616c726561647920657869737473000000000000000000600082015250565b60006117676017836113de565b915061177282611731565b602082019050919050565b600060208201905081810360008301526117968161175a565b905091905056fea2646970667358221220a40fe7a41497e5bc2ffe98391fb3935acd85cefb782c353dedff4832a466787464736f6c634300080c0033",
  "immutableReferences": {},
  "source": "// SPDX-License-Identifier: GPL-3.0\n\npragma solidity >=0.7.0 <0.9.0;\n\nimport \"./FUCKSToken.sol\";\n\ncontract MappingTest {\n    struct Proposal {\n        string topic;\n        string description;\n        address targetContract;\n        uint256 count;\n    }\n\n    mapping(string => Proposal) public proposals;\n\n    string[] public items;\n\n    uint256 public gas;\n    uint256 public gasprice;\n\n    FUCKSToken public FucksToken;\n\n    event Added(address client, string item);\n\n    constructor(address _FucksToken) {\n        FucksToken = FUCKSToken(_FucksToken);\n    }\n\n    function itemsSizePrivileged() public view returns (uint256) {\n        require(\n            FucksToken.balanceOf(msg.sender) >= 200000,\n            \"User should be token holder\"\n        );\n        return items.length;\n    }\n\n    function addItemPrivileged(string memory item) public {\n        require(!compareString(item, \"\"), \"item cannot be empty\");\n        require(\n            FucksToken.balanceOf(msg.sender) >= 200000,\n            \"User should be token holder\"\n        );\n        items.push(item);\n        gasprice = tx.gasprice;\n    }\n\n    function addItem(string memory item) public {\n        require(!compareString(item, \"\"), \"item cannot be empty\");\n        items.push(item);\n        gasprice = tx.gasprice;\n        emit Added(msg.sender, item);\n    }\n\n    function itemsSize() public view returns (uint256) {\n        return items.length;\n    }\n\n    function setProposal(\n        string memory topic,\n        string memory description,\n        address targetContract\n    ) public {\n        Proposal storage p = proposals[topic];\n        require(\n            compareString(p.topic, \"\") &&\n                compareString(p.description, \"\") &&\n                p.targetContract == address(0) &&\n                p.count == 0,\n            \"Proposal already exists\"\n        );\n        p.topic = topic;\n        p.description = description;\n        p.targetContract = targetContract;\n    }\n\n    function getProposal(string memory topic)\n        public\n        view\n        returns (Proposal memory)\n    {\n        require(compareString(topic, \"\"), \"topic is empty\");\n        return proposals[topic];\n    }\n\n    function compareString(string memory s1, string memory s2)\n        public\n        pure\n        returns (bool)\n    {\n        bytes memory bs1 = bytes(s1);\n        bytes memory bs2 = bytes(s2);\n        return (bs1.length == bs2.length) && (keccak256(bs1) == keccak256(bs2));\n    }\n\n    receive() external payable {\n        revert();\n    }\n\n    fallback() external payable {\n        // dont accept any ether\n        revert();\n    }\n}\n",
  "sourcePath": "/home/nischit/code/dapp/MyFirstLearningTestToken/contracts/MappingTest.sol",
  "compiler": {
    "name": "solc",
    "version": "0.8.12+commit.f00d7308.Emscripten.clang"
  },
  "schemaVersion": "3.4.6",
  "updatedAt": "2022-03-21T06:53:35.292Z",
  "networkType": "ethereum",
  "devdoc": {
    "kind": "dev",
    "methods": {},
    "version": 1
  },
  "userdoc": {
    "kind": "user",
    "methods": {},
    "version": 1
  }
}