{
  "contractName": "MappingTest",
  "abi": [
    {
      "inputs": [
        {
          "internalType": "address",
          "name": "_FucksToken",
          "type": "address"
        }
      ],
      "stateMutability": "nonpayable",
      "type": "constructor"
    },
    {
      "stateMutability": "payable",
      "type": "fallback",
      "payable": true
    },
    {
      "inputs": [],
      "name": "FucksToken",
      "outputs": [
        {
          "internalType": "contract FUCKSToken",
          "name": "",
          "type": "address"
        }
      ],
      "stateMutability": "view",
      "type": "function",
      "constant": true
    },
    {
      "inputs": [],
      "name": "gas",
      "outputs": [
        {
          "internalType": "uint256",
          "name": "",
          "type": "uint256"
        }
      ],
      "stateMutability": "view",
      "type": "function",
      "constant": true
    },
    {
      "inputs": [],
      "name": "gasprice",
      "outputs": [
        {
          "internalType": "uint256",
          "name": "",
          "type": "uint256"
        }
      ],
      "stateMutability": "view",
      "type": "function",
      "constant": true
    },
    {
      "inputs": [
        {
          "internalType": "uint256",
          "name": "",
          "type": "uint256"
        }
      ],
      "name": "items",
      "outputs": [
        {
          "internalType": "string",
          "name": "",
          "type": "string"
        }
      ],
      "stateMutability": "view",
      "type": "function",
      "constant": true
    },
    {
      "inputs": [
        {
          "internalType": "string",
          "name": "",
          "type": "string"
        }
      ],
      "name": "proposals",
      "outputs": [
        {
          "internalType": "string",
          "name": "topic",
          "type": "string"
        },
        {
          "internalType": "string",
          "name": "description",
          "type": "string"
        },
        {
          "internalType": "address",
          "name": "targetContract",
          "type": "address"
        },
        {
          "internalType": "uint256",
          "name": "count",
          "type": "uint256"
        }
      ],
      "stateMutability": "view",
      "type": "function",
      "constant": true
    },
    {
      "stateMutability": "payable",
      "type": "receive",
      "payable": true
    },
    {
      "inputs": [],
      "name": "itemsSizePrivileged",
      "outputs": [
        {
          "internalType": "uint256",
          "name": "",
          "type": "uint256"
        }
      ],
      "stateMutability": "view",
      "type": "function",
      "constant": true
    },
    {
      "inputs": [
        {
          "internalType": "string",
          "name": "item",
          "type": "string"
        }
      ],
      "name": "addItemPrivileged",
      "outputs": [],
      "stateMutability": "nonpayable",
      "type": "function"
    },
    {
      "inputs": [
        {
          "internalType": "string",
          "name": "item",
          "type": "string"
        }
      ],
      "name": "addItem",
      "outputs": [],
      "stateMutability": "nonpayable",
      "type": "function"
    },
    {
      "inputs": [],
      "name": "itemsSize",
      "outputs": [
        {
          "internalType": "uint256",
          "name": "",
          "type": "uint256"
        }
      ],
      "stateMutability": "view",
      "type": "function",
      "constant": true
    },
    {
      "inputs": [
        {
          "internalType": "string",
          "name": "topic",
          "type": "string"
        },
        {
          "internalType": "string",
          "name": "description",
          "type": "string"
        },
        {
          "internalType": "address",
          "name": "targetContract",
          "type": "address"
        }
      ],
      "name": "setProposal",
      "outputs": [],
      "stateMutability": "nonpayable",
      "type": "function"
    },
    {
      "inputs": [
        {
          "internalType": "string",
          "name": "topic",
          "type": "string"
        }
      ],
      "name": "getProposal",
      "outputs": [
        {
          "components": [
            {
              "internalType": "string",
              "name": "topic",
              "type": "string"
            },
            {
              "internalType": "string",
              "name": "description",
              "type": "string"
            },
            {
              "internalType": "address",
              "name": "targetContract",
              "type": "address"
            },
            {
              "internalType": "uint256",
              "name": "count",
              "type": "uint256"
            }
          ],
          "internalType": "struct MappingTest.Proposal",
          "name": "",
          "type": "tuple"
        }
      ],
      "stateMutability": "view",
      "type": "function",
      "constant": true
    },
    {
      "inputs": [
        {
          "internalType": "string",
          "name": "s1",
          "type": "string"
        },
        {
          "internalType": "string",
          "name": "s2",
          "type": "string"
        }
      ],
      "name": "compareString",
      "outputs": [
        {
          "internalType": "bool",
          "name": "",
          "type": "bool"
        }
      ],
      "stateMutability": "pure",
      "type": "function",
      "constant": true
    }
  ],
  "bytecode": "0x60806040523480156200001157600080fd5b5060405162001895380380620018958339818101604052810190620000379190620000e9565b80600460006101000a81548173ffffffffffffffffffffffffffffffffffffffff021916908373ffffffffffffffffffffffffffffffffffffffff160217905550506200011b565b600080fd5b600073ffffffffffffffffffffffffffffffffffffffff82169050919050565b6000620000b18262000084565b9050919050565b620000c381620000a4565b8114620000cf57600080fd5b50565b600081519050620000e381620000b8565b92915050565b6000602082840312156200010257620001016200007f565b5b60006200011284828501620000d2565b91505092915050565b61176a806200012b6000396000f3fe6080604052600436106100ab5760003560e01c8063823f51eb11610064578063823f51eb146101de5780639566862914610207578063977f121314610232578063bfb231d21461025d578063d90fd2451461029a578063ffa0d2a4146102c3576100b5565b806325d3a09d146100ba57806327e9f294146100f75780633d3198ba146101205780636ca7c2161461014b5780636ec232d31461017657806375b83187146101a1576100b5565b366100b557600080fd5b600080fd5b3480156100c657600080fd5b506100e160048036038101906100dc9190610f8c565b610303565b6040516100ee9190611121565b60405180910390f35b34801561010357600080fd5b5061011e60048036038101906101199190610f8c565b610517565b005b34801561012c57600080fd5b506101356105b6565b6040516101429190611152565b60405180910390f35b34801561015757600080fd5b506101606106a4565b60405161016d9190611152565b60405180910390f35b34801561018257600080fd5b5061018b6106aa565b6040516101989190611152565b60405180910390f35b3480156101ad57600080fd5b506101c860048036038101906101c3919061116d565b6106b0565b6040516101d59190611200565b60405180910390f35b3480156101ea57600080fd5b5061020560048036038101906102009190611247565b6106e3565b005b34801561021357600080fd5b5061021c61097c565b6040516102299190611152565b60405180910390f35b34801561023e57600080fd5b50610247610989565b6040516102549190611331565b60405180910390f35b34801561026957600080fd5b50610284600480360381019061027f9190611378565b6109af565b60405161029191906113ef565b60405180910390f35b3480156102a657600080fd5b506102c160048036038101906102bc9190610f8c565b610a5b565b005b3480156102cf57600080fd5b506102ea60048036038101906102e59190610f8c565b610bdb565b6040516102fa9493929190611420565b60405180910390f35b61030b610d51565b61032482604051806020016040528060008152506106b0565b610363576040517f08c379a000000000000000000000000000000000000000000000000000000000815260040161035a906114bf565b60405180910390fd5b600082604051610373919061151b565b908152602001604051809103902060405180608001604052908160008201805461039c90611561565b80601f01602080910402602001604051908101604052809291908181526020018280546103c890611561565b80156104155780601f106103ea57610100808354040283529160200191610415565b820191906000526020600020905b8154815290600101906020018083116103f857829003601f168201915b5050505050815260200160018201805461042e90611561565b80601f016020809104026020016040519081016040528092919081815260200182805461045a90611561565b80156104a75780601f1061047c576101008083540402835291602001916104a7565b820191906000526020600020905b81548152906001019060200180831161048a57829003601f168201915b505050505081526020016002820160009054906101000a900473ffffffffffffffffffffffffffffffffffffffff1673ffffffffffffffffffffffffffffffffffffffff1673ffffffffffffffffffffffffffffffffffffffff1681526020016003820154815250509050919050565b61053081604051806020016040528060008152506106b0565b15610570576040517f08c379a0000000000000000000000000000000000000000000000000000000008152600401610567906115df565b60405180910390fd5b6001819080600181540180825580915050600190039060005260206000200160009091909190915090805190602001906105ab929190610d8f565b503a60038190555050565b600062030d40600460009054906101000a900473ffffffffffffffffffffffffffffffffffffffff1673ffffffffffffffffffffffffffffffffffffffff166370a08231336040518263ffffffff1660e01b815260040161061791906115ff565b602060405180830381865afa158015610634573d6000803e3d6000fd5b505050506040513d601f19601f82011682018060405250810190610658919061162f565b1015610699576040517f08c379a0000000000000000000000000000000000000000000000000000000008152600401610690906116a8565b60405180910390fd5b600180549050905090565b60025481565b60035481565b6000808390506000839050805182511480156106d9575080805190602001208280519060200120145b9250505092915050565b600080846040516106f4919061151b565b908152602001604051809103902090506107a981600001805461071690611561565b80601f016020809104026020016040519081016040528092919081815260200182805461074290611561565b801561078f5780601f106107645761010080835404028352916020019161078f565b820191906000526020600020905b81548152906001019060200180831161077257829003601f168201915b5050505050604051806020016040528060008152506106b0565b801561085657506108558160010180546107c290611561565b80601f01602080910402602001604051908101604052809291908181526020018280546107ee90611561565b801561083b5780601f106108105761010080835404028352916020019161083b565b820191906000526020600020905b81548152906001019060200180831161081e57829003601f168201915b5050505050604051806020016040528060008152506106b0565b5b80156108b25750600073ffffffffffffffffffffffffffffffffffffffff168160020160009054906101000a900473ffffffffffffffffffffffffffffffffffffffff1673ffffffffffffffffffffffffffffffffffffffff16145b80156108c2575060008160030154145b610901576040517f08c379a00000000000000000000000000000000000000000000000000000000081526004016108f890611714565b60405180910390fd5b83816000019080519060200190610919929190610d8f565b5082816001019080519060200190610932929190610d8f565b50818160020160006101000a81548173ffffffffffffffffffffffffffffffffffffffff021916908373ffffffffffffffffffffffffffffffffffffffff16021790555050505050565b6000600180549050905090565b600460009054906101000a900473ffffffffffffffffffffffffffffffffffffffff1681565b600181815481106109bf57600080fd5b9060005260206000200160009150905080546109da90611561565b80601f0160208091040260200160405190810160405280929190818152602001828054610a0690611561565b8015610a535780601f10610a2857610100808354040283529160200191610a53565b820191906000526020600020905b815481529060010190602001808311610a3657829003601f168201915b505050505081565b610a7481604051806020016040528060008152506106b0565b15610ab4576040517f08c379a0000000000000000000000000000000000000000000000000000000008152600401610aab906115df565b60405180910390fd5b62030d40600460009054906101000a900473ffffffffffffffffffffffffffffffffffffffff1673ffffffffffffffffffffffffffffffffffffffff166370a08231336040518263ffffffff1660e01b8152600401610b1391906115ff565b602060405180830381865afa158015610b30573d6000803e3d6000fd5b505050506040513d601f19601f82011682018060405250810190610b54919061162f565b1015610b95576040517f08c379a0000000000000000000000000000000000000000000000000000000008152600401610b8c906116a8565b60405180910390fd5b600181908060018154018082558091505060019003906000526020600020016000909190919091509080519060200190610bd0929190610d8f565b503a60038190555050565b600081805160208101820180518482526020830160208501208183528095505050505050600091509050806000018054610c1490611561565b80601f0160208091040260200160405190810160405280929190818152602001828054610c4090611561565b8015610c8d5780601f10610c6257610100808354040283529160200191610c8d565b820191906000526020600020905b815481529060010190602001808311610c7057829003601f168201915b505050505090806001018054610ca290611561565b80601f0160208091040260200160405190810160405280929190818152602001828054610cce90611561565b8015610d1b5780601f10610cf057610100808354040283529160200191610d1b565b820191906000526020600020905b815481529060010190602001808311610cfe57829003601f168201915b5050505050908060020160009054906101000a900473ffffffffffffffffffffffffffffffffffffffff16908060030154905084565b60405180608001604052806060815260200160608152602001600073ffffffffffffffffffffffffffffffffffffffff168152602001600081525090565b828054610d9b90611561565b90600052602060002090601f016020900481019282610dbd5760008555610e04565b82601f10610dd657805160ff1916838001178555610e04565b82800160010185558215610e04579182015b82811115610e03578251825591602001919060010190610de8565b5b509050610e119190610e15565b5090565b5b80821115610e2e576000816000905550600101610e16565b5090565b6000604051905090565b600080fd5b600080fd5b600080fd5b600080fd5b6000601f19601f8301169050919050565b7f4e487b7100000000000000000000000000000000000000000000000000000000600052604160045260246000fd5b610e9982610e50565b810181811067ffffffffffffffff82111715610eb857610eb7610e61565b5b80604052505050565b6000610ecb610e32565b9050610ed78282610e90565b919050565b600067ffffffffffffffff821115610ef757610ef6610e61565b5b610f0082610e50565b9050602081019050919050565b82818337600083830152505050565b6000610f2f610f2a84610edc565b610ec1565b905082815260208101848484011115610f4b57610f4a610e4b565b5b610f56848285610f0d565b509392505050565b600082601f830112610f7357610f72610e46565b5b8135610f83848260208601610f1c565b91505092915050565b600060208284031215610fa257610fa1610e3c565b5b600082013567ffffffffffffffff811115610fc057610fbf610e41565b5b610fcc84828501610f5e565b91505092915050565b600081519050919050565b600082825260208201905092915050565b60005b8381101561100f578082015181840152602081019050610ff4565b8381111561101e576000848401525b50505050565b600061102f82610fd5565b6110398185610fe0565b9350611049818560208601610ff1565b61105281610e50565b840191505092915050565b600073ffffffffffffffffffffffffffffffffffffffff82169050919050565b60006110888261105d565b9050919050565b6110988161107d565b82525050565b6000819050919050565b6110b18161109e565b82525050565b600060808301600083015184820360008601526110d48282611024565b915050602083015184820360208601526110ee8282611024565b9150506040830151611103604086018261108f565b50606083015161111660608601826110a8565b508091505092915050565b6000602082019050818103600083015261113b81846110b7565b905092915050565b61114c8161109e565b82525050565b60006020820190506111676000830184611143565b92915050565b6000806040838503121561118457611183610e3c565b5b600083013567ffffffffffffffff8111156111a2576111a1610e41565b5b6111ae85828601610f5e565b925050602083013567ffffffffffffffff8111156111cf576111ce610e41565b5b6111db85828601610f5e565b9150509250929050565b60008115159050919050565b6111fa816111e5565b82525050565b600060208201905061121560008301846111f1565b92915050565b6112248161107d565b811461122f57600080fd5b50565b6000813590506112418161121b565b92915050565b6000806000606084860312156112605761125f610e3c565b5b600084013567ffffffffffffffff81111561127e5761127d610e41565b5b61128a86828701610f5e565b935050602084013567ffffffffffffffff8111156112ab576112aa610e41565b5b6112b786828701610f5e565b92505060406112c886828701611232565b9150509250925092565b6000819050919050565b60006112f76112f26112ed8461105d565b6112d2565b61105d565b9050919050565b6000611309826112dc565b9050919050565b600061131b826112fe565b9050919050565b61132b81611310565b82525050565b60006020820190506113466000830184611322565b92915050565b6113558161109e565b811461136057600080fd5b50565b6000813590506113728161134c565b92915050565b60006020828403121561138e5761138d610e3c565b5b600061139c84828501611363565b91505092915050565b600082825260208201905092915050565b60006113c182610fd5565b6113cb81856113a5565b93506113db818560208601610ff1565b6113e481610e50565b840191505092915050565b6000602082019050818103600083015261140981846113b6565b905092915050565b61141a8161107d565b82525050565b6000608082019050818103600083015261143a81876113b6565b9050818103602083015261144e81866113b6565b905061145d6040830185611411565b61146a6060830184611143565b95945050505050565b7f746f70696320697320656d707479000000000000000000000000000000000000600082015250565b60006114a9600e836113a5565b91506114b482611473565b602082019050919050565b600060208201905081810360008301526114d88161149c565b9050919050565b600081905092915050565b60006114f582610fd5565b6114ff81856114df565b935061150f818560208601610ff1565b80840191505092915050565b600061152782846114ea565b915081905092915050565b7f4e487b7100000000000000000000000000000000000000000000000000000000600052602260045260246000fd5b6000600282049050600182168061157957607f821691505b6020821081141561158d5761158c611532565b5b50919050565b7f6974656d2063616e6e6f7420626520656d707479000000000000000000000000600082015250565b60006115c96014836113a5565b91506115d482611593565b602082019050919050565b600060208201905081810360008301526115f8816115bc565b9050919050565b60006020820190506116146000830184611411565b92915050565b6000815190506116298161134c565b92915050565b60006020828403121561164557611644610e3c565b5b60006116538482850161161a565b91505092915050565b7f557365722073686f756c6420626520746f6b656e20686f6c6465720000000000600082015250565b6000611692601b836113a5565b915061169d8261165c565b602082019050919050565b600060208201905081810360008301526116c181611685565b9050919050565b7f50726f706f73616c20616c726561647920657869737473000000000000000000600082015250565b60006116fe6017836113a5565b9150611709826116c8565b602082019050919050565b6000602082019050818103600083015261172d816116f1565b905091905056fea26469706673582212208d7cd743b04df8670112448ffb1a0b743028ecb3261ec1a43acdee157b21f35064736f6c634300080c0033",
  "immutableReferences": {},
  "source": "// SPDX-License-Identifier: GPL-3.0\n\npragma solidity >=0.7.0 <0.9.0;\n\nimport \"./FUCKSToken.sol\";\n\ncontract MappingTest {\n    struct Proposal {\n        string topic;\n        string description;\n        address targetContract;\n        uint256 count;\n    }\n\n    mapping(string => Proposal) public proposals;\n\n    string[] public items;\n\n    uint256 public gas;\n    uint256 public gasprice;\n\n    FUCKSToken public FucksToken;\n\n    constructor(address _FucksToken) {\n        FucksToken = FUCKSToken(_FucksToken);\n    }\n\n    \n    function itemsSizePrivileged() public view returns (uint256) {\n        require(\n            FucksToken.balanceOf(msg.sender) >= 200000,\n            \"User should be token holder\"\n        );\n        return items.length;\n    }\n\n    function addItemPrivileged(string memory item) public {\n        require(!compareString(item, \"\"), \"item cannot be empty\");\n        require(\n            FucksToken.balanceOf(msg.sender) >= 200000,\n            \"User should be token holder\"\n        );\n        items.push(item);\n        gasprice = tx.gasprice;\n    }\n\n    function addItem(string memory item) public {\n        require(!compareString(item, \"\"), \"item cannot be empty\");\n        items.push(item);\n        gasprice = tx.gasprice;\n    }\n\n    function itemsSize() public view returns (uint256) {\n        return items.length;\n    }\n\n    function setProposal(\n        string memory topic,\n        string memory description,\n        address targetContract\n    ) public {\n        Proposal storage p = proposals[topic];\n        require(\n            compareString(p.topic, \"\") &&\n                compareString(p.description, \"\") &&\n                p.targetContract == address(0) &&\n                p.count == 0,\n            \"Proposal already exists\"\n        );\n        p.topic = topic;\n        p.description = description;\n        p.targetContract = targetContract;\n    }\n\n    function getProposal(string memory topic)\n        public\n        view\n        returns (Proposal memory)\n    {\n        require(compareString(topic, \"\"), \"topic is empty\");\n        return proposals[topic];\n    }\n\n    function compareString(string memory s1, string memory s2)\n        public\n        pure\n        returns (bool)\n    {\n        bytes memory bs1 = bytes(s1);\n        bytes memory bs2 = bytes(s2);\n        return (bs1.length == bs2.length) && (keccak256(bs1) == keccak256(bs2));\n    }\n\n    receive() external payable {\n        revert();\n    }\n\n    fallback() external payable {\n        // dont accept any ether\n        revert();\n    }\n}\n",
  "sourcePath": "/home/nischit_office/code/dapp/myfirstlearningtesttoken/contracts/MappingTest.sol",
  "compiler": {
    "name": "solc",
    "version": "0.8.12+commit.f00d7308.Emscripten.clang"
  },
  "schemaVersion": "3.4.6",
  "updatedAt": "2022-03-20T09:57:41.660Z",
  "networkType": "ethereum",
  "devdoc": {
    "kind": "dev",
    "methods": {},
    "version": 1
  },
  "userdoc": {
    "kind": "user",
    "methods": {},
    "version": 1
  }
}