{
  "contractName": "RemoteCall",
  "abi": [
    {
      "inputs": [
        {
          "internalType": "address",
          "name": "_target",
          "type": "address"
        }
      ],
      "stateMutability": "nonpayable",
      "type": "constructor"
    },
    {
      "stateMutability": "payable",
      "type": "fallback",
      "payable": true
    },
    {
      "stateMutability": "payable",
      "type": "receive",
      "payable": true
    },
    {
      "inputs": [
        {
          "internalType": "string",
          "name": "item",
          "type": "string"
        }
      ],
      "name": "addItem",
      "outputs": [],
      "stateMutability": "nonpayable",
      "type": "function"
    },
    {
      "inputs": [],
      "name": "itemsSize",
      "outputs": [
        {
          "internalType": "uint256",
          "name": "",
          "type": "uint256"
        }
      ],
      "stateMutability": "nonpayable",
      "type": "function"
    }
  ],
  "bytecode": "0x608060405234801561001057600080fd5b50604051610953380380610953833981810160405281019061003291906100db565b806000806101000a81548173ffffffffffffffffffffffffffffffffffffffff021916908373ffffffffffffffffffffffffffffffffffffffff16021790555050610108565b600080fd5b600073ffffffffffffffffffffffffffffffffffffffff82169050919050565b60006100a88261007d565b9050919050565b6100b88161009d565b81146100c357600080fd5b50565b6000815190506100d5816100af565b92915050565b6000602082840312156100f1576100f0610078565b5b60006100ff848285016100c6565b91505092915050565b61083c806101176000396000f3fe60806040526004361061002d5760003560e01c806327e9f2941461003c578063956686291461006557610037565b3661003757600080fd5b600080fd5b34801561004857600080fd5b50610063600480360381019061005e9190610524565b610090565b005b34801561007157600080fd5b5061007a6101f6565b6040516100879190610586565b60405180910390f35b60008060009054906101000a900473ffffffffffffffffffffffffffffffffffffffff1673ffffffffffffffffffffffffffffffffffffffff16826040516024016100db9190610629565b6040516020818303038152906040527f27e9f294000000000000000000000000000000000000000000000000000000007bffffffffffffffffffffffffffffffffffffffffffffffffffffffff19166020820180517bffffffffffffffffffffffffffffffffffffffffffffffffffffffff83818316178352505050506040516101659190610692565b6000604051808303816000865af19150503d80600081146101a2576040519150601f19603f3d011682016040523d82523d6000602084013e6101a7565b606091505b50509050806101f25760006101f1576040517f08c379a00000000000000000000000000000000000000000000000000000000081526004016101e8906106f5565b60405180910390fd5b5b5050565b60008060008060009054906101000a900473ffffffffffffffffffffffffffffffffffffffff1673ffffffffffffffffffffffffffffffffffffffff166040516024016040516020818303038152906040527f95668629000000000000000000000000000000000000000000000000000000007bffffffffffffffffffffffffffffffffffffffffffffffffffffffff19166020820180517bffffffffffffffffffffffffffffffffffffffffffffffffffffffff83818316178352505050506040516102c39190610692565b6000604051808303816000865af19150503d8060008114610300576040519150601f19603f3d011682016040523d82523d6000602084013e610305565b606091505b509150915081610351576000610350576040517f08c379a0000000000000000000000000000000000000000000000000000000008152600401610347906106f5565b60405180910390fd5b5b61035c816000610363565b9250505090565b60006020826103729190610744565b835110156103b5576040517f08c379a00000000000000000000000000000000000000000000000000000000081526004016103ac906107e6565b60405180910390fd5b60008260208501015190508091505092915050565b6000604051905090565b600080fd5b600080fd5b600080fd5b600080fd5b6000601f19601f8301169050919050565b7f4e487b7100000000000000000000000000000000000000000000000000000000600052604160045260246000fd5b610431826103e8565b810181811067ffffffffffffffff821117156104505761044f6103f9565b5b80604052505050565b60006104636103ca565b905061046f8282610428565b919050565b600067ffffffffffffffff82111561048f5761048e6103f9565b5b610498826103e8565b9050602081019050919050565b82818337600083830152505050565b60006104c76104c284610474565b610459565b9050828152602081018484840111156104e3576104e26103e3565b5b6104ee8482856104a5565b509392505050565b600082601f83011261050b5761050a6103de565b5b813561051b8482602086016104b4565b91505092915050565b60006020828403121561053a576105396103d4565b5b600082013567ffffffffffffffff811115610558576105576103d9565b5b610564848285016104f6565b91505092915050565b6000819050919050565b6105808161056d565b82525050565b600060208201905061059b6000830184610577565b92915050565b600081519050919050565b600082825260208201905092915050565b60005b838110156105db5780820151818401526020810190506105c0565b838111156105ea576000848401525b50505050565b60006105fb826105a1565b61060581856105ac565b93506106158185602086016105bd565b61061e816103e8565b840191505092915050565b6000602082019050818103600083015261064381846105f0565b905092915050565b600081519050919050565b600081905092915050565b600061066c8261064b565b6106768185610656565b93506106868185602086016105bd565b80840191505092915050565b600061069e8284610661565b915081905092915050565b7f636f756c64206e6f7420616464206974656d0000000000000000000000000000600082015250565b60006106df6012836105ac565b91506106ea826106a9565b602082019050919050565b6000602082019050818103600083015261070e816106d2565b9050919050565b7f4e487b7100000000000000000000000000000000000000000000000000000000600052601160045260246000fd5b600061074f8261056d565b915061075a8361056d565b9250827fffffffffffffffffffffffffffffffffffffffffffffffffffffffffffffffff0382111561078f5761078e610715565b5b828201905092915050565b7f52656164206f7574206f6620626f756e64730000000000000000000000000000600082015250565b60006107d06012836105ac565b91506107db8261079a565b602082019050919050565b600060208201905081810360008301526107ff816107c3565b905091905056fea264697066735822122089254ed9b09ece152226c2c5d620fae067eee33700dabac6ba36358e622b1be764736f6c634300080c0033",
  "immutableReferences": {},
  "source": "// SPDX-License-Identifier: GPL-3.0\n\npragma solidity >=0.7.0 <0.9.0;\n\ncontract RemoteCall {\n    address target;\n\n    constructor(address _target) {\n        target = _target;\n    }\n\n    function addItem(string memory item) public {\n        (bool success, ) = target.call(\n            abi.encodeWithSignature(\"addItem(string)\", item)\n        );\n        if (!success) {\n            require(false, \"could not add item\");\n        }\n    }\n\n    function itemsSize() public returns (uint256) {\n        (bool success, bytes memory res) = target.call(\n            abi.encodeWithSignature(\"itemsSize()\")\n        );\n        if (!success) {\n            require(false, \"could not add item\");\n        }\n        return toUint256(res, 0);\n    }\n\n    function toUint256(bytes memory _bytes, uint256 _start)\n        internal\n        pure\n        returns (uint256)\n    {\n        require(_bytes.length >= (_start + 32), \"Read out of bounds\");\n        uint256 tempUint;\n\n        assembly {\n            tempUint := mload(add(add(_bytes, 0x20), _start))\n        }\n\n        return tempUint;\n    }\n\n    receive() external payable {\n        revert();\n    }\n\n    fallback() external payable {\n        // dont accept any ether\n        revert();\n    }\n}\n",
  "sourcePath": "/home/nischit/code/dapp/MyFirstLearningTestToken/contracts/RemoteCall.sol",
  "compiler": {
    "name": "solc",
    "version": "0.8.12+commit.f00d7308.Emscripten.clang"
  },
  "schemaVersion": "3.4.6",
  "updatedAt": "2022-03-21T06:53:35.297Z",
  "networkType": "ethereum",
  "devdoc": {
    "kind": "dev",
    "methods": {},
    "version": 1
  },
  "userdoc": {
    "kind": "user",
    "methods": {},
    "version": 1
  }
}